S01900005472617368426F697A5F617070636F64652E737265633A
S214000000882A0020F9BE0000F1BF0000F1BF000002
S21400001000000000000000000000000000000000DB
S214000020000000000000000000000000F1BF00001B
S2140000300000000000000000F1BF0000F1BF00005B
S214000040F1BF0000F1BF0000F1BF0000457D0000D9
S214000050F5760000F1BF0000F1BF0000F1BF000020
S214000060F1BF0000B1A10000C9A10000E1A100009D
S214000070F9A1000011A2000029A2000041BE000064
S21400008055BE000069BE0000F1BF0000F1BF0000D1
S214000090F1BF00000000000000000000F1BF0000FB
S2140000A0F1BF0000F1BF0000F1BF0000F1BF00008B
S2140000B00000000010B5064C2378002B07D1054B36
S2140000C0002B02D0044800E000BF0123237010BDBF
S2140000D03802002000000000BC540100084B10B598
S2140000E0002B03D00749084800E000BF0748036814
S2140000F0002B00D110BD064B002BFBD09847F9E72C
S214000100000000003C020020BC540100BC5401006A
S2140001100000000080B584B000AF0200FB1D1A701E
S2140001200F23FB18FA1D1278D2091A700E23FB183B
S214000130FA1D127852091A700D4BBB600F23FB187C
S2140001401B78002B0FD10F23FB181B789B00102267
S2140001509446BC446344083B1A680E23FB181B787D
S214000160DB01D31800E000231800BD4604B080BDB4
S2140001700044004180B582B000AF0200FB1D1A703B
S214000180FB1D1B781800034B984703001800BD465C
S21400019002B080BD1501000080B582B000AF786067
S2140001A07B6800221A707B6801225A707B680022E6
S2140001B09A70C046BD4602B080BD000080B584B0CF
S2140001C000AF0200FB1D1A70BB1D0A1C1A70FB1D37
S2140001D01B7818000D4B98470300FB60FB1D1B782F
S2140001E01F22134001229A401300BB60BB1D1B78E0
S2140001F0002B03D0FB68BA689A6102E0FB68BA6815
S2140002005A61C046BD4604B080BDC04675010000B8
S21400021080B584B000AF78607B681B68FB60FB68C5
S214000220DB695A1E9341DBB21800BD4604B080BDA0
S21400023080B582B000AF78607B6801221A707B6858
S21400024000225A607B6800229A607B68C022920374
S214000250DA607B6800221A747B6800225A747B6816
S21400026001229A747B680122DA747B6800221A7570
S2140002707B682422002199547B6818330C220021C5
S21400028018000A4B98477B68094A9A617B680022E7
S2140002909A627B680022DA627B6800221A637B68B7
S2140002A000225A63C046BD4602B080BDCB1F010087
S2140002B0A086010080B582B000AF78607B680A2215
S2140002C01A707B6800225A707B6800229A70C046BB
S2140002D0BD4602B080BD000080B584B000AF786037
S2140002E039603B681A787B681A703B685A787B6876
S2140002F05A703B689A787B689A700C23FB18180033
S2140003000B4B98470C23FB1801221A707B681B784E
S2140003100C22BA1811001800064B98477B681B7809
S21400032001211800044B9847C046BD4604B080BD66
S2140003309901000035870000BD01000080B584B03B
S21400034000AF78607B681B68FB60C0467B6818005F
S214000350064B9847031EF9D1FB681B6802221A4316
S214000360FB681A60C046BD4604B080BD110200009E
S21400037080B584B000AF78607B681B68FB60C046C1
S2140003807B681800074B9847031EF9D1FB681B686B
S214000390022293431A00FB681A60C046BD4604B0AA
S2140003A080BDC0461102000080B584B000AF786002
S2140003B07B681B68FB60FB681B7EDBB21A000223AF
S2140003C013405A1E9341DBB21800BD4604B080BDF0
S2140003D080B584B000AF78607B681B68FB60FB6804
S2140003E01B7EDBB21A00012313405A1E9341DBB278
S2140003F01800BD4604B080BD80B584B000AF7860FC
S2140004007B681B68FB60FB681B7EDBB21A0004235C
S21400041013405A1E9341DBB21800BD4604B080BD9F
S21400042080B584B000AF78600A00BB1C1A807B6879
S2140004301B68FB607B6818000A4B984703001A008D
S21400044001235340DBB2002B01D0052306E0BB1C82
S2140004501B88DB05DA0DFB689A6200231800BD4690
S21400046004B080BDD103000080B584B000AF7860D2
S21400047039607B681B68BB607B6818001D4B98471B
S21400048003001A0001235340DBB2002B01D01023D7
S2140004902CE00F23FB1800221A70BB685B8B9BB204
S2140004A01A00042313400BD00F23FB181E221A70C9
S2140004B0BB685B8B9BB2042213439AB2BB685A8319
S2140004C07B689B79012B08D1BB689B6A9BB2DB05D6
S2140004D0DB0D9AB23B681A8005E0BB689B6ADBB20C
S2140004E09AB23B681A800F23FB181B781800BD468B
S2140004F004B080BDF903000080B586B000AFF86098
S214000500B960BB1D1A801323FB1800221A7017232C
S214000510FB1800221A701623FB1800221A701423E8
S214000520FB1800221A801023FB1800221A80FB6892
S214000530002B07D11323FB18FB601723FB1801229F
S2140005401A700DE0BB68002B07D11323FB18BB60A5
S2140005501623FB1801221A7002E006235B426AE0AB
S2140005603749384B01221800374B98474CE0FB6858
S2140005701A781423FB181A80C046324B1800334BE7
S214000580984703001A0001235340DBB2002BF4D136
S214000590C0461423FB181A882A4B110018002C4B4F
S2140005A09847031EF5D1C046264B1800294B98479E
S2140005B003001A0001235340DBB2002BF4D1C046DF
S2140005C01023FA181F4B11001800234B9847031EE0
S2140005D0F6D11023FB181B88DAB2BB681A70BB1D55
S2140005E01A88BB1D013A1A801623FB181B78002BAD
S2140005F002D1BB680133BB601723FB181B78002BA6
S21400060002D1FB680133FB60BB1D1B88002BAED1FB
S214000610C0460C4B1800114B984703001A000123E4
S2140006205340DBB2002BF4D10549064B00221800DC
S214000630054B984700231800BD4606B080BDC0464F
S21400064004040020080400201D860000D1030000DA
S21400065021040000F903000069040000A90300005B
S21400066080B592B000AF78604723FB1800221A705E
S2140006700823FB181800264B98470823FB180E2261
S2140006801A700823FA18234B11001800224B9847BB
S2140006900C23FB181800214B98470C23FB18C0228C
S2140006A09203DA600C23FB181D4A9A620C23FB188F
S2140006B01C4ADA620C23FB18012252421A630C23EE
S2140006C0FB18194A5A630C23FB1800221A750C23D0
S2140006D0FB18164A9A610C23FA181549154B180090
S2140006E0154B9847031E02D006235B420CE0114BC5
S2140006F01800124B9847124B98470120114B984709
S2140007004723FB181B785BB21800BD4612B080BDAD
S214000710B502000004040020D902000031020000E7
S21400072002000C0002000D0002000F00001BB700C4
S2140007300010004208040020158500003D0300005C
S2140007402D2700007127000090B585B000AF02008D
S2140007503960FB1D1A700F23FB1800221A70FB1D50
S2140007601B78032B0FD13B68BB60BB681868BB685F
S2140007705968BB681B890F22BC181A000F4B984794
S2140007800300237012E00F23FB18FF221A70862343
S2140007905A000B490B4B18000B4B98470B4B180095
S2140007A00B4B98470D200B4B9847C0460F23FB1862
S2140007B01B785BB21800BD4605B090BDF90400007A
S2140007C0D0360100A83601002D210100BC360100FC
S2140007D0492201006121010080B582B000AFFB1DF7
S2140007E000221A703B1D1800094B98473B1D00223B
S2140007F01A703B1D00225A70064B1800064B98478D
S214000800FB1D1B785BB21800BD4602B080BDC0461B
S21400081099010000080400207103000080B582B032
S21400082000AF78607B6850221A807B6800229A703E
S2140008307B680B4A1A817B6800225A607B6800221C
S214000840DA607B68802252001A617B6852225A6105
S2140008507B68044A9A61C046BD4602B080BDC04669
S214000860204E0000E036010090B583B000AF7860FF
S21400087039607B68002B02D03B68002B02D1162320
S2140008805B4258E03B681B69002B02D116235B4293
S21400089051E03B685B68002B02D116235B424AE0BE
S2140008A03B685B69512B02D816235B4243E07B68AA
S2140008B0E82200211800224B98477B68503339689D
S2140008C01C2218001F4B98477B68DB6D002B15D148
S2140008D03B681B6918001C4B984703001A007B688E
S2140008E0DA657B68DB6D002B02D10C235B4222E0CD
S2140008F07B684122995C0420014399543B681B891C
S214000900002B10D03B6858687A6810490023104CBA
S214000910A04702007B689A647B689B6C002B02DA17
S2140009201C235B4207E07B680022DA667B68D822DD
S2140009300021995000231800BD4603B090BDC04664
S214000940CB1F0100951F0100491F0100F10B00009D
S214000950D522000080B582B000AF78607B680E3389
S2140009600E2B25D89A00184BD3181B689F460523D4
S2140009705B4224E002235B4221E070235B421EE0E0
S2140009800C235B421BE016235B4218E00C235B4201
S21400099015E005235B4212E079235B420FE06823F3
S2140009A05B420CE00B235B4209E010235B4206E04F
S2140009B07B68002B02DA05235B4200E00023180068
S2140009C0BD4602B080BDC0461C38010080B58AB066
S2140009D000AF3A60FB1D021C1A70BB1D0A1C1A7081
S2140009E0FB1D00229A564B4B9200D3587B627B6AC3
S2140009F0002B00D18AE0BB1D1B78062B40D0072BAE
S214000A0060D0052B00D082E03B683B623B6A5B7897
S214000A105BB21A000C23FB181A603B6A5B785BB269
S214000A20002B0CDA3B6A5B785BB218003A4B9847AF
S214000A3002007B6A11001800384B984767E07B6A13
S214000A40DB6C002B06D07B6ADB6C0C22BA18786A4B
S214000A50002198477B6A0322DA667B6A586D7B6AB8
S214000A60996C7B6A58229B5A1A002D4B98477B6AD2
S214000A7018002C4B98477B6A18002B4B984746E08B
S214000A803B68FB61FB6904229B5E002B09DDFB696A
S214000A9004229B5E1A007B6A11001800234B9847BD
S214000AA00BE0FB6904229B5E18001B4B9847020074
S214000AB07B6A11001800194B98477B6A1800194B7F
S214000AC0984724E01A23FB183A6812881A801A23DB
S214000AD0FB1800229B5E002B0DDA1A23FB1800225F
S214000AE09B5E18000C4B984702007B6A11001800AA
S214000AF00A4B984703E07B6A18000B4B98477B6AC3
S214000B004122995C01208143995400E0C046BD46CD
S214000B100AB080BD5402002055090000C90F00002D
S214000B2065230000551800001D110000B9180000CC
S214000B3080B588B000AF786039600023FB6148E07C
S214000B40274BFA699200D358002B3FD0244BFA6902
S214000B509200D358BB61BB695A1C7B681100180011
S214000B60204B9847031E31D1BB69DB6E012B2DD17C
S214000B703B68002B07D176235A42BB691100180048
S214000B80194B984728E00823FB1802221A80BB69F5
S214000B9050229B5A1B021AB2BB6950215B5A1B0A91
S214000BA09BB21BB213431BB29AB20823FB185A809F
S214000BB00823FB183A685A60BB691B785BB20822A8
S214000BC0B91810221800094B984705E0FB69013355
S214000BD0FB61FB69062BB3DDBD4608B080BDC04691
S214000BE0540200204D240100C90F00004566000095
S214000BF080B586B000AFF860B9607A603B607B680D
S214000C007B617B69002B07D03E235A427B6911002B
S214000C101800034B984700E0C046BD4606B080BDAE
S214000C20C90F000080B584B000AF78600023FB6079
S214000C303AE07B685A1C7A600B22BA181B7813704D
S214000C400B23FB181B78602B04D90B23FB181B788F
S214000C50662B13D90B23FB181B78402B04D90B23C8
S214000C60FB181B78462B09D90B23FB181B783A2B4D
S214000C7004D00B23FB181B782F2B02D10123FB601B
S214000C8012E00B23FB181B782E2B04D1FB68002BDD
S214000C900AD000230DE00B23FB181B7830221340EC
S214000CA0302B01D0002304E07B681B78002BC0D1DA
S214000CB001231800BD4604B080BD0000B0B58EB05C
S214000CC000AFF860B9603B60FB1D1A703723FB1855
S214000CD000221A700023BB6200233B630023FB62E2
S214000CE000237B62FB68002B02D116235B4245E1A2
S214000CF0FB68DB6E022B02D910235B423EE1A14962
S214000D00BB6807221800A04B9847031E02D1072392
S214000D103B6309E09D49BB68082218009A4B984738
S214000D20031E01D108233B63FB685C1C3B6BBA685F
S214000D30D518FB6801331800954B984703001A0036
S214000D4029002000904B984703007B620DE0FB6A69
S214000D505A1CFA623A6BB9688A181178FA68D3187E
S214000D600A1C5A703B6B01333B633B6BBA68D31863
S214000D701B78002B05D03B6BBA68D3181B782F2B3B
S214000D80E5D1FA68FB6AD318013300221A703B6B70
S214000D90BA68D318BB62FB6801331B78002B02D1FC
S214000DA016235B42EAE0BB6A1800794B98470300BB
S214000DB03F2B02D95B235B42E0E0FB68D4229B58C2
S214000DC0002B05D0FB68D4229B581800714B98471F
S214000DD0BB6C002B10D0BB6C18006F4B9847030001
S214000DE01900FB68D4229950FB68D4229B58002B2C
S214000DF006D10C235B42C1E0FB68D4220021995047
S214000E00FB684122995C012081439954FB680022CB
S214000E105A64BB6A1B782F2B07D1FB687033BA6AFB
S214000E20110018005D4B98470FE0FB6870222F21D9
S214000E309954BB6A1B78002B07D0FB6870330133CC
S214000E40BA6A11001800554B98473B68002B07D02C
S214000E50FB68B033396818221800514B984706E0F3
S214000E60FB68B0331822002118004E4B9847FB68E9
S214000E70FA1DC82112785A54FB68DB6E012B03D08A
S214000E8016D3022B04D074E07B6A002B00D173E0EB
S214000E907B6A002B07D1FB680322DA66FB68180022
S214000EA0414B984769E0FB68002118003F4B984784
S214000EB0FB6852229B5C002B07D03723FB18372297
S214000EC0BA18127801210A431A703723FB181B78C8
S214000ED01A0001210220364B984703001A00FB68CF
S214000EE01A70FB681B785BB2002B3FDBFB681B7835
S214000EF05BB21A002F4B9200F968D150FB680133A1
S214000F0018002D4B9847031E27D01423FB180222E7
S214000F101A80FB6850229B5A1B021AB2FB685021AB
S214000F205B5A1B0A9BB21BB213431BB29AB2142322
S214000F30FB185A80FB6801331800204B98470200C4
S214000F401423FB185A60FB681B785BB21422B9188E
S214000F50102218001A4B984704E0FB68013318006B
S214000F60184B9847FB680122DA6606E01C235B42B2
S214000F7004E00B235B4201E0C04600231800BD4698
S214000F800EB0B0BDEC360100B9240100F436010005
S214000F90AB2401005D1F01007124010061240100E3
S214000FA0951F0100CB1F01001D110000C90F000096
S214000FB0C164000054020020250C0000D96B00001C
S214000FC045660000E16C000080B586B000AF786032
S214000FD039607B68C0229B58002B07D07B68C022F4
S214000FE09B587A68C4215258100098477B68B033E3
S214000FF0182200211800244B98477B68DB6E002BD4
S21400100005D07B681B785BB21800204B98477B683E
S2140010101B785BB21A001E4B92000021D1507B68F1
S2140010206C336C2200211800174B98477B68D83326
S214001030102200211800144B98477B680022DA66BD
S2140010407B68D822002199507B684122995C012058
S214001050814399547B684122995C022081439954CC
S2140010600C23FB183A681A607B68DB6C002B06D0F2
S2140010707B68DB6C0C22BA18786804219847C04657
S214001080BD4606B080BDC046CB1F0100A56A000065
S2140010905402002090B587B000AFF860B9607A605F
S2140010A0FB687B617B694122995C0120014399546E
S2140010B07B69002018567B689AB2B9680023144CE6
S2140010C0A04703003B613B69002B0FDA7B69412296
S2140010D0995C0120814399543B6914E000200D4B34
S2140010E098477B695B6D18000B4B98477B694122DC
S2140010F09B5C01221340DBB2002B03D07B69DB6EC6
S214001100022BEBD800231800BD4607B090BDC046A2
S21400111099670000F5390000E1230000F0B5C646E7
S21400112000B5A0B002AFF8616846B861182318226F
S214001130BA18D018BD4B9C46634616CB16C09C46C4
S21400114063461B689C4663460360F869406E8446A7
S21400115001235B429846C4446346FB66386000231E
S2140011607B6039687A680B005B0F9C461300DB00D7
S2140011707B6163467C691C437C610B00DB003B6142
S2140011800500002216006A0FF300FB60FB6813439D
S214001190FB60EB00BB60C31DDB08DB006A46D31AAE
S2140011A09D4602AB0033BB66FB69002B00D146E3CD
S2140011B0FB6941229B5C01221340DBB2002B00D06E
S2140011C03FE3FB69B0337B66FB69DB6E032B03D022
S2140011D0042B00D1B3E12FE3FB69CC220021995008
S2140011E0FB69D02200219950B96EFB695A6E904C6B
S2140011F0342318203818C018FB69009323008D4C40
S214001200A047FB69C8229B5C012B0AD18A4934237C
S21400121018229446BC44634404221800874B98471F
S2140012204EE0FB69C8229B5C022B0AD1844934231A
S21400123018229446BC446344052218007F4B984706
S2140012403EE0FB69C8229B5C032B0AD17D49342310
S21400125018229446BC44634407221800774B9847EC
S2140012602EE0FB69C8229B5C042B0AD17649342306
S21400127018229446BC446344042218006F4B9847D7
S2140012801EE0FB69C8229B5C052B0AD16F493423FC
S21400129018229446BC44634408221800674B9847BB
S2140012A00EE0FB69C8229B5C062B09D168493423F3
S2140012B018229446BC446344052218005F4B9847A6
S2140012C0FB6970331C00FB6970331800614B98474C
S2140012D00200342318218C46BC44634421001800C5
S2140012E0564B98475C49342318229446BC446344C2
S2140012F00B221800514B984758493423182294461D
S214001300BC4463440C2218004C4B9847FB699C6E07
S214001310FB699B6E18004F4B984702003423182138
S2140013208C46BC44634421001800444B98474C4903
S214001330342318229446BC446344022218003F4BD0
S21400134098474849342318229446BC4463440622EE
S21400135018003A4B9847FB695C1CFB690133180080
S2140013603C4B98470200342318218C46BC44634407
S21400137021001800314B98473949342318229446E7
S214001380BC446344022218002C4B98473649342349
S21400139018229446BC44634418221800274B9847EA
S2140013A03249342318229446BC446344132218005E
S2140013B0224B98472E49342318229446BC44634453
S2140013C0172218001D4B98477B6EDB68002B00D158
S2140013D088E07B6E1B78002B0FD0FB69CC210122A6
S2140013E052425A502349342318229446BC4463443C
S2140013F01C221800114B984774E07B6E9B68002BEC
S21400140070D07B6E9A687B6E5B691800904701000F
S214001410FB69CC229950FB69CC229B58002B2BDA17
S214001420FB69CC22002199505CE0C046DC37010005
S21400143095100000FD1F000000370100BD200000D1
S2140014400837010010370100183701002037010067
S2140014502C370100AB24010034370100403701006F
S21400146050370100543701005C370100783701001F
S2140014708C370100A4370100FB69CC229B581A0068
S214001480E049282318208446BC4463441800DE4BF9
S2140014909847DE49342318229446BC4463441022FD
S2140014A01800DB4B9847282318229446BC44634414
S2140014B01800D84B98470200282318217918C91815
S2140014C0342318208446BC4463441800D04B984705
S2140014D0D149342318229446BC446344022218009F
S2140014E0CB4B9847FB69D4229B58002B12D0FB6944
S2140014F0D4229C58FB69D4229B581800C54B9847A9
S2140015000200342318218C46BC4463442100180092
S214001510BF4B9847C049342318229446BC446344C2
S21400152002221800BA4B9847342318229446BC442B
S21400153063441800B94B9847FB690422DA66FB69D6
S214001540CC229B58002B00DBC6E07B6EDB68002BB2
S21400155000D1C1E07B6EDC687B6E5869BB6E591D9E
S214001560FB695B6EDD1FFB69D0229B582A00A047F3
S21400157003007B677B6F002B01DA00237B67BB6E63
S2140015800A221A71BB6E0D22DA707B6F0533BA6EB3
S2140015900D21D1547B6F0633BA6E0A21D1547B6F6E
S2140015A0002B14DBBB6E02333B677B6F9C4A1340F9
S2140015B004D5013B10225242134301331A0018236C
S2140015C018218C46BC4463449A5C3B6F1A707B6F50
S2140015D00F2B19DDBB6E01333B677B6F002B00DAE8
S2140015E00F331B111A008E4B134004D5013B1022FB
S2140015F05242134301331A00182318218C46BC4468
S21400160063449A5C3B6F1A707B6FFF2B18DDBB6ED2
S2140016103B677B6F002B00DAFF331B121A00804BF0
S214001620134004D5013B10225242134301331A00E3
S214001630182318218C46BC4463449A5C3B6F1A708E
S214001640FB69002018563B6F03331A00BB6ED31A93
S2140016509AB27B6F9BB2D3189BB204339AB2396F9F
S2140016600023704CA04703003B663B6E002B07DA56
S21400167005235A42FB69110018006B4B9847E1E0BE
S214001680FB69D0229A587B6FD218FB69D0215A503A
S2140016907B6F002B00D0C9E0FB69C0229B58002B53
S2140016A007D0FB69C0229B58FA69C4215258100023
S2140016B09847FB690222DA66FB69DB6C002B00D1D7
S2140016C0B5E0FB69DB6C0C2218218C46BC446244F6
S2140016D0F86901219847AAE0FB69CC229B58002BA9
S2140016E000DC7CE07B6EDB68002B00D177E0FB69DA
S2140016F0D0229A58FB69CC215B589A421FDBFB69C3
S214001700C0229B58002B07D0FB69C0229B58FA6961
S214001710C421525810009847FB690222DA66FB691A
S214001720DB6C002B00D184E0FB69DB6C0C221821FB
S2140017308C46BC446244F8690121984779E07B6E88
S214001740DC687B6E5869B96EFB695D6EFB69D022FA
S2140017509B582A00A04703007B677B6F002B0DDA9F
S2140017607B6F002B02D14D235B4201E005235B42D9
S214001770FA69190010002C4B984757E0FB69CC22F9
S2140017809A58FB69D0215B58D21A7B6F9A4207DAC7
S214001790FB69CC229A58FB69D0215B58D31A7B6729
S2140017A0FB6900201856B96E7B6F9AB200231D4C59
S2140017B0A04703003B663B6E002B07DA05235A4220
S2140017C0FB6911001800184B98473BE0FB69D022D4
S2140017D09A587B6FD218FB69D0215A5026E0FB69D5
S2140017E00222DA66FB69DB6C002B24D0FB69DB6C1B
S2140017F00C2218218C46BC446244F86901219847A3
S21400180019E0C046C4370100ED230100C8370100C7
S214001810BD200000AB24010050370100F920000075
S2140018200F00008099670000C90F000004E0C04662
S21400183002E0C04600E0C046BB699D4604E0C046E4
S21400184000E0C046BB699D46BD461EB004BC90463F
S214001850F0BDC04690B583B000AF78607B68002BC3
S21400186021D07B685A6C7B681B6E9A4207D38B2309
S2140018705A427B68110018000D4B984714E07B68AD
S214001880002018567B68DA6D7B685B6CD1187B6825
S2140018901B6E9AB27B685B6C9BB2D31A9AB200231B
S2140018A0044CA04700E0C046BD4603B090BDC0460D
S2140018B0C90F0000FD68000080B582B000AF7860F8
S2140018C039607B685A6C3B68D2187B685A647B68C0
S2140018D058229B5A002B07D07B685A6D7B689B6CFE
S2140018E019001000064B9847C0467B681800054B49
S2140018F09847031EF9D1C046BD4602B080BDC0461B
S214001900B52300000919000080B582B000AF7860EA
S2140019107B68D8229B58002B02D0012B06D00BE008
S2140019207B681800074B9847030006E07B681800A2
S214001930054B9847030000E000231800BD4602B0A0
S21400194080BDC0464D190000051E000090B58BB046
S21400195000AF78607B68DB6D7B629A4B1A687B6AA7
S21400196011001800984B98470300BB61BB69002B19
S21400197007D07B68DA6D7B685B6CD218BB699A42CD
S21400198007D87A6A7B6811001800904B98470023A6
S21400199014E18C4B1C688B4B1B6818008C4B9847CB
S2140019A002007B6A210018008A4B9847031E5DD10F
S2140019B0844B1B681800864B984702007B6A9A186F
S2140019C07B6811001800814B98477B68DB6C002B06
S2140019D046D07B68E4229B5A002B41D07B68DC22F1
S2140019E09B58002B19DA7B68E4229A5A0C23FB18C2
S2140019F01A800C23FB1801229A707B68E0220021D3
S214001A0099500C23FB1800229A607B68DB6C0C2232
S214001A10BA1878680221984722E07B68DC229A5838
S214001A207B681B6E9A421BDD7B68E4229A5A0C2365
S214001A30FB181A807B68DC229B581A000C23FB18C4
S214001A405A600C23FB1800229A607B68E022002173
S214001A5099507B68DB6C0C22BA187868022198478C
S214001A607B68D822012199500123A7E05A497B6A56
S214001A7010221800574B9847031E09D17B6A103373
S214001A801800564B984701007B68DC2299508BE083
S214001A9053497B6A132218004E4B9847031E27D1E2
S214001AA07B6A13333B621EE03B6A1B78202B03D114
S214001AB03B6A01333B6216E03B6A1B78432B03D03C
S214001AC03B6A1B78632B05D17B68CC2101225242EE
S214001AD05A5069E086235A427B6811001800414B31
S214001AE0984700236AE0BA693B6A9A42DCD85BE012
S214001AF03D497B6A0C221800364B9847031E26D1B8
S214001B007B6A0C33FB611DE0FB691B78202B03D13D
S214001B10FB690133FB6115E0FB691B784B2B03D097
S214001B20FB691B786B2B06D17B684122995C0220EF
S214001B300143995438E07B684122995C0220814336
S214001B40995431E0BA69FB699A42DDD82CE02749FE
S214001B507B6A052218001F4B9847031E24D17B6A18
S214001B60093318001D4B9847030099B27B68E4229E
S214001B7099527B68DC22002199507B6A05331B78DA
S214001B80312B04D87B6A07331B78302B06D97B6849
S214001B904122995C02200143995405E07B6841226A
S214001BA0995C022081439954064B1B681800084B29
S214001BB098470200BB699B187B62CEE61800BD46BC
S214001BC00BB090BD04000020DB240100B11F000014
S214001BD0AB240100B9240100C8370100C51E01006E
S214001BE0EC370100C90F0000003801001038010072
S214001BF080B588B000AF78607B685B6CFB610023C3
S214001C00BB617B68DB6D7B617B68E0229B58002BA9
S214001C1071DB7B68E0229B58002B34D17B68D8228E
S214001C20002199507B68E422002199520823FB1872
S214001C3001221A720823FB1800221A600823FB18D8
S214001C4000225A607B68DB6C002B06D07B68DB6C5E
S214001C500822BA187868032198477B6841229B5C63
S214001C6002221340DBB2002B05D17B68002118004E
S214001C70624B9847BFE07B699A1C7B68110018008E
S214001C805F4B9847B2E07B68E0229A58FB699A421D
S214001C9000DDABE07B68E0229B581A000823FB18A7
S214001CA01A600823FB187A695A600823FB1800227A
S214001CB01A727B68DB6C002B06D07B68DB6C082214
S214001CC0BA187868032198477B68E0229B5802334D
S214001CD07A69D2187B6811001800494B98477B68D0
S214001CE05B6CFB617B68DB6D7B617B68E0210122BE
S214001CF052425A507AE07B68E022002199505AE01E
S214001D007B691B780A2B06D17B6901337B61FB69F3
S214001D10013BFB6152E0BB69002B45D17B691B7818
S214001D202F2B10D97B691B78392B0CD87B68E022C7
S214001D309B581B017A6912789B18303B1A007B6807
S214001D40E0215A5031E07B691B78602B10D97B6903
S214001D501B78662B0CD87B68E0229B581B017A699F
S214001D6012789B18613B1A007B68E0215A501CE0F1
S214001D707B691B78402B10D97B691B78462B0CD8C7
S214001D807B68E0229B581B017A6912789B18413BBE
S214001D901A007B68E0215A5007E07B691B783B2BD2
S214001DA003D10123BB6100E0C0467B6901337B6140
S214001DB0FB69013BFB61FB69002BA1DC7B68E02231
S214001DC09A587B681B6E9A4207DD8B235A427B68C3
S214001DD011001800094B98470DE0FB69002B05D150
S214001DE07B68E021012252425A5004E07B685B6C1B
S214001DF0002B00D008E7BD4608B080BDC90F000024
S214001E00B11F000080B586B000AF78607B68DB6DE0
S214001E107B617B68DC229B58002B58DB7B68DC22CE
S214001E209A587B681B6E9A4251DC7B685B6C190083
S214001E307B68DC229B58994200DAA9E07B68DB6C61
S214001E40002B20D07B68E4229B5A002B1BD07B689B
S214001E50E4229A5A0823FB181A800823FB1800224B
S214001E609A707B68DC229B581A000823FB185A607D
S214001E700823FB187A699A607B68DB6C0822BA181C
S214001E807868022198477B68D822002199507B68A1
S214001E90E422002199527B6841229B5C0222134077
S214001EA0DBB2002B05D17B68002118003B4B98471E
S214001EB06EE07B68DC229B581A007B699A187B6868
S214001EC011001800364B98477B685B6C61E07B68B6
S214001ED0DC229B58002B57DB7B685A6C0823FB18C8
S214001EE01A600823FB187A695A607B68E0229A58C1
S214001EF07B685B6CD2187B68E0215A507B68DC22DA
S214001F009A587B68E0215B589A420CDC7B68D822A2
S214001F10002199507B68E422002199520823FB187F
S214001F2001221A7203E00823FB1800221A727B684B
S214001F30DB6C002B06D07B68DB6C0822BA1878684E
S214001F40032198470823FB181B7A012B12D17B68C4
S214001F5041229B5C02221340DBB2002B0AD1114BBC
S214001F601800114B98477B68002118000B4B9847C8
S214001F7000230EE07B685B6C7A69D2187B681100E0
S214001F801800074B984703E07B681800074B9847F4
S214001F9000231800BD4606B080BDC046C90F00002D
S214001FA0B11F00001838010049220100F11B000093
S214001FB080B584B000AF786039607B68DB6DFB600D
S214001FC07B685B6C1A003B68D21AFB68D318BB6050
S214001FD0BB68002B09DDBA683968FB681800064B39
S214001FE09847BA687B685A6402E07B6800225A64A5
S214001FF0C046BD4604B080BDA71F010080B584B0B2
S21400200000AFF860B9607A603B60FB687A681A6077
S214002010FB68BA681A61FB6800225A60FB683A6877
S2140020209A60FB68BA69DA60C046BD4604B080BDF7
S21400203080B584B000AF78600A00FB1C1A707B681D
S2140020401A687B685B68D31AFB60FB68002B03DCAE
S2140020507B681800084B98477B6819697B685B6843
S214002060581C7A685060CB18FA1C12781A70C04652
S214002070BD4604B080BDC046F920000080B582B0E1
S21400208000AF78600A00BB1C1A80BB1C00229B5E57
S2140020901B121BB25AB27B6811001800064B9847F9
S2140020A0BB1C1B885AB27B6811001800024B98476D
S2140020B0C046BD4602B080BD3120000080B584B069
S2140020C000AFF860B9607A600DE0BB681B785AB262
S2140020D0FB6811001800074B98477B68013B7B6044
S2140020E0BB680133BB607B68002BEED1C046BD46A3
S2140020F004B080BD3120000090B583B000AF78609A
S2140021007B685B68002B0CD07B689C687B68D86813
S2140021107B6819697B685B681A00A0477B680022A9
S2140021205A60C046BD4603B090BD000080B500AF03
S2140021300020054B98470200044B1B7ADBB2DA40BE
S21400214013001800BD4680BD05AE00000004004028
S21400215080B584B000AF78607B681B68FB60C046C3
S214002160FB689B6802221340FAD1FB681B680222B8
S2140021701A43FB681A60C046BD4604B080BD000026
S21400218080B582B000AF7860044B1B685A1C034BC6
S2140021901A60C046BD4602B080BDC0467002002030
S2140021A080B582B000AF78607B6864225A807B6816
S2140021B000221A707B6800225A70C046BD4602B0E4
S2140021C080BD000090B5B1B000AF786039600C23D8
S2140021D0FB182E4A13CA13C33B685B881A007B6839
S2140021E05A657B681433BC22BA1813603B681B78A8
S2140021F01A000C23FB189200D2581823FB18110063
S2140022001800234B9847234B984704003B685B888D
S2140022101A00214B1100FA221002984703001A00F8
S2140022201E4B11002000984703001A001823FB18C5
S2140022305A601823FB180522DA723B681B781A00CE
S2140022400C23FB189200D1581823FA18BC23FB184D
S2140022501B681800124B98473B685B780833DAB265
S2140022601049BC23FB181B6818000F4B98473B68A7
S2140022705B780833DAB2BC23FB181B681100180021
S2140022800A4B9847C046BD4631B090BD583801004D
S21400229029B300002D210000C5000100B1FF000099
S2140022A085B90000812100009DBD0000DDBD000055
S2140022B080B584B000AF78607B681433FB60FB6841
S2140022C01800034B9847C046BD4604B080BDC046C4
S2140022D05121000080B586B000AFF860B9607A6022
S2140022E03B6000237B6132E0F9687A6913009B004B
S2140022F09B189B005B5CDB07DB0FDBB2002B23D15C
S2140023007A6913009B009B189B00FA68D3183B6100
S2140023103B69BA685A603B691A7802218A431A7088
S2140023203B697A689A60FB685A6D0D4B11003868F5
S214002330984703001A003B69DA603B691A78012166
S2140023400A431A707B6907E07B6901337B617B690E
S214002350002BC9DD01235B421800BD4606B080BDD8
S214002360B1FF000080B586B000AFF860B9607A6053
S214002370BA6813009B009B189B00FA68D3187B6111
S2140023807B691A7802210A431A70FB685A6D074B5C
S21400239011007868984703001A00054B1B68D2188E
S2140023A07B691A61C046BD4606B080BDB1FF00001D
S2140023B07002002080B584B000AF786039603A685B
S2140023C013009B009B189B007A68D318FB60FB6881
S2140023D01A7802218A431A70C046BD4604B080BDF2
S2140023E090B585B000AF78600023FB6053E0796855
S2140023F0FA6813009B009B189B005B5CDB07DB0FF7
S214002400DBB2002B44D07968FA6813009B009B1857
S2140024109B005B5C9B07DB0FDBB2002B38D0FA68B7
S21400242013009B009B189B007A68D318BB60BB68A0
S2140024301A691C4B1B68D31A2AD5BB681B78042262
S2140024401340DBB2002B23D1BB681A7804210A4361
S2140024501A70BB68DB68002B07D0BB68DA68114BC4
S2140024601B68D218BB681A6104E0BB681A780221A0
S2140024708A431A70BB685C68BB689A68BB68DB688E
S214002480F9687868A047BB681A7804218A431A70EE
S214002490FB680133FB60FB68002BA8DDC046BD4629
S2140024A005B090BD7002002080B582B000AF7860A5
S2140024B07B68002B0CD0084B7A685A60064B0022CB
S2140024C09A60C046044B1A6880235B021340F9D01A
S2140024D0C046BD4602B080BD10E000E080B500AF4B
S2140024E000200F4B984702000E4B1A600D4B1868E1
S2140024F00D4BFA229100984703001A00094B1A6008
S214002500084B1868084BFA229100984703001A00F7
S214002510064B1A60064B05221A60C046BD4680BDB3
S21400252005AE000008000020B1FF00000C000020EF
S21400253010E000E080B582B000AF786004E0074BA2
S2140025401B681800064B98477B685A1E7A60002B5B
S214002550F5D1C046BD4602B080BDC046080000208A
S214002560A924000080B584B000AF0200FB1D1A70DD
S2140025700F23FB18FA1D1278D2091A700E23FB18C7
S214002580FA1D127852091A700D4BBB600F23FB1808
S2140025901B78002B0FD10F23FB181B789B001022F3
S2140025A09446BC446344083B1A680E23FB181B7809
S2140025B0DB01D31800E000231800BD4604B080BD40
S2140025C00044004180B582B000AF0200FB1D1A70C7
S2140025D0FB1D1B781800034B984703001800BD46E8
S2140025E002B080BD6525000080B582B000AF78607F
S2140025F07B6800221A707B6801225A707B68002272
S2140026009A70C046BD4602B080BD000080B584B05A
S21400261000AF0200FB1D1A70BB1D0A1C1A70FB1DC2
S2140026201B7818000D4B98470300FB60FB1D1B78BA
S2140026301F22134001229A401300BB60BB1D1B786B
S214002640002B03D0FB68BA689A6102E0FB68BA68A0
S2140026505A61C046BD4604B080BDC046C5250000D0
S21400266080B500AF044B01221A70BFF35F8F62B6CD
S214002670C046BD4680BDC0461400002080B500AFF1
S214002680044B1B68002B02D0024B1B689847C046C1
S214002690BD4680BD7402002080B582B000AF3B1DF1
S2140026A018000C4B98473B1D01221A703B1D190061
S2140026B01B20094B98473B1D19001C20064B9847CA
S2140026C03B1D19002820044B9847C046BD4602B063
S2140026D080BDC046E92500003587000080B500AF04
S2140026E00C4B00221A600C4B98470C4B1B680122BF
S2140026F0134004D0094B1B680222134001D1084B3B
S2140027009847084B9847084B984700231800BD4643
S21400271080BDC046740200209926000010E000E04C
S214002720DD2400002D2700006126000080B500AFE4
S21400273000211C200C4B984700211B200A4B984771
S21400274064200A4B984701211C20074B98470A2013
S214002750064B984701211B20034B98470A20034B42
S2140027609847C046BD4680BD0D2600007127000074
S21400277080B582B000AF786002E00120054B984734
S2140027807B685A1E7A60002BF7D1C046BD4602B061
S21400279080BDC0463525000080B586B000AF7860A5
S2140027A0154B7A681A600C23FB181800134B9847D1
S2140027B00C23FB1829221A600C23FB1800225A60EF
S2140027C00C23FB1801221A720C23FB180222DA7261
S2140027D00C23FB1819000920094B9847094B0022C7
S2140027E009211800084B984700210920074B9847F5
S2140027F0C046BD4606B080BD74020020017A0000C7
S214002800357A00007D26000001760000657600001F
S21400281080B582B000AF0200FB1D1A70FB1D1B784E
S214002820002B04D000210920054B984703E0002127
S2140028300920044B9847C046BD4602B080BDC0463E
S21400284065760000AD76000080B584B000AFF86015
S214002850B9607A607B68002B10D0BB681A78FB687A
S2140028601A70FB680133FB60BB680133BB607B6892
S214002870013B7B607B68002BEFD100E0C046BD4685
S21400288004B080BD80B584B000AFF8607A600B23DA
S214002890FB180A1C1A707B68002B0ED0FB680B22F4
S2140028A0BA1812781A70FB680133FB607B68013B2C
S2140028B07B607B68002BF1D100E0C046BD4604B0CB
S2140028C080BD80B584B000AF78600E23FB18002270
S2140028D01A8009E00E23FB181A880E23FB18013213
S2140028E01A807B6801337B607B681B78002BF1D1F4
S2140028F00E23FB181B881800BD4604B080BD0000E0
S21400290080B500AF044B1B78DBB20133DAB2024B62
S2140029101A70C046BD4680BD7B02002090B583B0CD
S21400292000AFFB1D00221A700120134B9847FC1DB8
S2140029303B00124A19001000114B98470300237001
S214002940FB1D1B785BB2002B0DD13B6802221343A4
S2140029503B603B68FC1D094A19001000094B98476C
S2140029600300237000E0C046FB1D1B785BB2180016
S214002970BD4603B090BDC046112800007010000090
S214002980F54400001945000080B582B000AF3A60FB
S214002990FB1D021C1A703B1D0A1C1A80C046BD4651
S2140029A002B080BD90B583B000AFFB1D00221A7048
S2140029B01C4B1B78DBB2002B21D11B4B1B78DBB2E8
S2140029C0032B04D0184B1B78DBB2042B17D1FC1D4D
S2140029D0164B984703002370FB1D1B785BB2002B39
S2140029E015D1FC1D124A134B11001800124B9847C4
S2140029F003002370FB1D1B785BB2002B09D1094B2B
S214002A001B78DBB20133DAB2064B1A7002E0C0461E
S214002A1000E0C046FB1D1B785BB21800BD4603B045
S214002A2090BDC04679020020780200204D3E00008E
S214002A3078560000741000001945000090B583B069
S214002A4000AFFB1D00221A70294B1B78DBB2002B4F
S214002A5006D0274B1B78DBB2013BDAB2244B1A7048
S214002A60234B1B78DBB2002B3AD1224B1B78DBB210
S214002A70032B04D01F4B1B78DBB2042B30D1002372
S214002A803B60FC1D1C4A1D4B110018001C4B984750
S214002A9003002370FB1D1B785BB2002B1DD1FC1DB1
S214002AA03B0019000120174B984703002370FB1DBD
S214002AB01B785BB2002B12D13B68022213400FD06A
S214002AC03B68022293433B603B68FC1D19000120D3
S214002AD00B4B98470300237002E0C04600E0C04658
S214002AE0FB1D1B785BB21800BD4603B090BDC04608
S214002AF079020020780200202143000074100000B4
S214002B0019450000F544000080B582B000AF78603B
S214002B100E4B00221A600E4B00221A600D4B00224C
S214002B201A700D4B00221A700C4B00221A700C4BB8
S214002B3018000C4B98470C4B190003200B4B98477A
S214002B4000231800BD4602B080BDC0467C020020AF
S214002B508002002079020020780200207B020020FC
S214002B60012900009927000089290000553500003A
S214002B7090B589B000AF040008003A601900FB1D4C
S214002B80221C1A70BB1D021C1A703B1D0A1C1A80E0
S214002B901F23FB18FF221A70BB1D1B787F221340D1
S214002BA0DAB21823FB185A701823FB18FA1D12788D
S214002BB01A701823FB1808225A803B6B002B11D082
S214002BC01823FB185B889AB23823F9183423FB18AD
S214002BD009881B88CB189BB2D3189AB21823FB1807
S214002BE05A800AE01823FB185B889AB23B1D1B88A4
S214002BF0D3189AB21823FB185A801F23FC189B4B35
S214002C009847030023701F23FB181B785BB2002B2A
S214002C1000D003E100233B610E23FB1800221A803C
S214002C2000237B61FB1D1A787B6913437B61BB1D08
S214002C301B781A027B6913437B611823FB185B8899
S214002C409BB21A047B6913437B617B691F22BC1805
S214002C50874A19001000874B9847030023701F23EC
S214002C60FB181B785BB2002B00D0EDE000237B61E5
S214002C707B69022213437B617B691F22BC187E4A54
S214002C80190010007B4B9847030023701F23FB1886
S214002C901B785BB2002B00D0D8E000233B610E23EC
S214002CA0FB1800221A8031E01F23FC181423FB189F
S214002CB0714A19001000714B9847030023701F23B8
S214002CC0FB181B785BB2002B28D17B6902221340CD
S214002CD013D11F23FC181023FB18694A1900100093
S214002CE0664B9847030023701F23FB181B785BB2C4
S214002CF0002B15D000233B6112E00E23FB181B8827
S214002D009BB201339AB20E23FB181A800E23FB18CF
S214002D101B889BB25B4A9342C6D902E0C04600E0DD
S214002D20C0463B69002B00D173E03B69BB601823AB
S214002D30FB185B889AB21823FB185A80BB681F22C0
S214002D40BC181822B918082218004F4B98470300E1
S214002D5023701F23FB181B785BB2002B00D077E094
S214002D60BB680833BB603B68002B15D0B8683B1DBA
S214002D701A881F23FC183B681900434B984703002A
S214002D8023701F23FB181B785BB2002B62D13B1D00
S214002D901A88BB68D318BB603B6B002B21D0382346
S214002DA0FB181A883B1D1B88D31A1A00BB68D31859
S214002DB0BB60B8683423FB181A881F23FC183B6BCB
S214002DC01900314B9847030023701F23FB181B780C
S214002DD05BB2002B40D13423FB181A88BB68D3188B
S214002DE0BB603B699B007B617B69022213437B616E
S214002DF07B691F22BC18254A190010001D4B9847F6
S214002E00030023701F23FB181B785BB2002B14D023
S214002E1023E01F23FB18FD221A701EE0CA235A0067
S214002E201B491C4B18001C4B98471C4B18001C4B8E
S214002E3098470D201B4B98470FE01F23FC181A4B92
S214002E4098470300237008E0C04606E0C04604E04A
S214002E50C04602E0C04600E0C0461F23FB181B78B1
S214002E605BB21800BD4609B090BDC046A52900005B
S214002E708C1000001945000078100000F544000092
S214002E8000041500E7030000614600006C10000017
S214002E90C83A0100643801002D210100783801008D
S214002EA049220100612101003D2A000090B587B04B
S214002EB002AF0F23FB18FA221A700F23FC18DF4B01
S214002EC09847030023700F23FB181B785BB2002B78
S214002ED000D09CE10F23FC180823FB18D84A1900E1
S214002EE01000D84B9847030023700F23FB181B785D
S214002EF05BB2002B00D07CE1BB680122134000D1FE
S214002F0067E10020D04B98470F23FC180823FB18D6
S214002F10CB4A19001000CB4B9847030023700F23B1
S214002F20FB181B785BB2002B00D085E1BB68012242
S214002F309343BB60BB680F22BC18C14A190010003F
S214002F40C24B9847030023700F23FB181B785BB215
S214002F50002B00D0B2E10F23FC180823FB18B84A58
S214002F6019001000B74B9847030023700F23FB1877
S214002F701B785BB2002B12D0C023FF331A00B44973
S214002F80B44B1800B44B9847B44B1800B44B984752
S214002F900D20B44B98470120AB4B98478FE1B24BBE
S214002FA000221A70BB689B089AB20C23FB18120505
S214002FB0120D1A800C23FB181B88002B00D1F6E09C
S214002FC000233B600F23FC183B00A84A19001000A2
S214002FD09C4B9847030023700F23FB181B785BB2AB
S214002FE0002B12D0CE23FF331A009949994B1800B4
S214002FF0994B98479E4B1800994B98470D20994B34
S21400300098470120904B984759E13B680F22BC181F
S214003010391D04221800974B9847030023703B1D68
S2140030205B889AB23B1D5A800F23FB181B785BB255
S214003030002B12D0D623FF331A008549854B180083
S214003040854B98478C4B1800854B98470D20854B31
S214003050984701207C4B984731E13B1D5B889BB22B
S2140030600C22BA1812889A422DD00C23FB181B8803
S2140030703A1D528892B29B1A042B24DDEF235A0085
S2140030807349744B1800744B98470C23FB18198827
S2140030903B1D5B889BB21A003B1D1B78DBB21C00F5
S2140030A03B1D5B78DBB27548009323006A4CA04753
S2140030B00D206C4B98470120634B98470F23FB1855
S2140030C0FA221A70FBE03B1D1B78DBB2012B11D1F4
S2140030D06B4B1B68002B50D0694B1B683A1D52780F
S2140030E0D0B23A1D528892B2083A91B23A68083283
S2140030F0984742E03B1D1B78DBB2022B11D1614B97
S2140031001B68002B39D05F4B1B683A1D5278D0B233
S2140031103A1D528892B2083A91B23A6808329847F5
S2140031202BE03B1D1B78DBB2042B11D1564B1B68E2
S214003130002B22D0544B1B683A1D5278D0B23A1D51
S214003140528892B2083A91B23A680832984714E028
S214003150F823FF331A003E493E4B18003E4B984773
S2140031604A4B18003E4B98470D203E4B98470F237E
S214003170FB18FA221A70C046A1E03B4B1B78DBB264
S214003180002B52D1FF235A003149324B1800324BE4
S21400319098473F4B1800324B98470D20314B9847C5
S2140031A00F23FC183B4B9847030023703DE00F238A
S2140031B0FB18FE221A70384A2549264B1800264B63
S2140031C09847364B1800264B98470D20254B9847B6
S2140031D075E0334A1E491F4B18001F4B9847BA68C4
S2140031E0304B110018001C4B98470D201D4B98477C
S2140031F01BE02D4A1649174B1800174B98472B4BC8
S2140032001800174B98470D20164B984757E0284A4A
S2140032100F49104B1800104B9847264B1800104BC0
S21400322098470D200F4B984749E00F23FC18224B78
S21400323098470300237042E0C04640E0A5290000FE
S21400324070100000F5440000112800001945000029
S214003250D43A0100643801002D21010094380100A1
S21400326049220100612101007A020020841000003A
S214003270B838010069450000DC380100F438010068
S2140032807C020020800200208402002034390100E5
S2140032904C3901001D2900000602000070390100AB
S2140032A00D0200008439010013020000A03901005D
S2140032B019020000C43901003D2A0000C0460F2351
S2140032C0FB181B785BB21800BD4605B090BDC04623
S2140032D090B583B000AFFB1D00221A7024E0184B97
S2140032E01B78DBB2013BDAB2154B1A70FC1D154B8E
S2140032F0984703002370FB1D1B785BB2002B00D1A0
S21400330012E08E239A001049104B1800104B984775
S214003310FB1D00229A560F4B110018000C4B9847C5
S2140033200D200D4B9847E1E7054B1B78DBB2002BD1
S214003330D5D1FB1D1B785BB21800BD4603B090BD0F
S2140033407B020020AD2E0000DC3A0100643801004C
S2140033502D210100E43901006121010090B589B0FA
S21400336000AFF860B9601900BB1D1A807B1D0A1CEF
S2140033701A701F23FB1800221A70FB68002B06D059
S214003380BB68002B03D0BB1D1B88002B1ED17B1DEA
S2140033901B78002B08D05F4B01221A701F23FC18E5
S2140033A05D4B9847030023701F23FB18F4221A7006
S2140033B05A4A5B495B4B18005B4B98475B4B1800BF
S2140033C05B4B98470D205B4B98479AE01F23FC18F1
S2140033D01423FB18584A19001000584B984703004E
S2140033E023701F23FB181B785BB2002B00D083E0F2
S2140033F07B699B089AB21C23FB181205120D1A80D3
S2140034001F23FC181823FB184D4A190010004B4BBD
S2140034109847030023701F23FB181B785BB2002B12
S21400342000D06BE0BB1D1A881F23FC18B968FB6828
S2140034301800444B9847030023701F23FB181B7883
S2140034405BB2002B5CD1BA1D1C23FB1812881B88AC
S2140034509A4217D91F23FB18F4221A709C239A004D
S2140034602F49304B1800304B9847BB1D19881C233A
S214003470FB181A88344B18002B4B98470D202D4B01
S21400348098473EE0BB69FA689A420AD3BB1D1A8881
S214003490FB68D2181C23FB181988BB69CB189A4204
S2140034A011D91F23FB18F4221A70284A1C491D4BF9
S2140034B018001D4B9847264B18001D4B98470D20AB
S2140034C01C4B98471DE01C23FB181A88BB69D218B2
S2140034D0BB1D1988FB68CB189A4203D07B1D1B784E
S2140034E0002B0ED00B4B01221A701F23FC180A4B20
S2140034F098470300237004E0C04602E0C04600E0A0
S214003500C0461F23FB181B785BB21800BD4609B0E7
S21400351090BDC0467A0200201D2900005D02000012
S214003520EC3A0100643801002D210100143A010034
S214003530492201006121010070100000F5440000DE
S2140035408410000069450000343A0100760200004D
S214003550783A010080B584B000AF02003960FB1DE8
S2140035601A700F23FB1800221A70FB1D1B78022B03
S21400357008D002DC012B09D014E0032B0ED0042B5C
S21400358008D00FE0164B3A681A6020E0154B3A68F0
S2140035901A601CE0144B3A681A6018E0134B3A683D
S2140035A01A6014E0124A1349134B1800134B98473D
S2140035B0FB1D1A78124B11001800104B98470D206F
S2140035C0104B98470F23FB18F4221A70C0460F239F
S2140035D0FB181B785BB21800BD4604B080BDC04621
S2140035E0800200207C020020840200208802002046
S2140035F0A5020000F83A0100643801002D21010000
S214003600BC3A01006121010090B5ABB002AF3A6050
S214003610FB1D021C1A703B1D0A1C1A80FB1D1B7822
S2140036202C2B16D19423F918386800230422BB4C9F
S214003630A047031E00D06CE1B94B1B68002B00D1DD
S21400364067E1B74B1B689422BA1811002C209847E4
S2140036505FE1FB1D1B781B2B16D18C23F9183868ED
S21400366000230822AD4CA047031E00D051E1AC4B0E
S2140036701B68002B00D14CE1A94B1B688C22BA18A2
S21400368011001B20984744E1FB1D1B78062B16D122
S2140036900C23F918386801233022A04CA047031EDB
S2140036A000D036E19E4B1B68002B00D131E19C4BCD
S2140036B01B680C22BA1811000620984729E1FB1D4A
S2140036C01B780E2B00D124E1FB1D1B78322B16D164
S2140036D07C23F918386800231022904CA047031E5C
S2140036E000D016E18E4B1B68002B00D111E18C4BED
S2140036F01B687C22BA1811003220984709E1FB1D8E
S2140037001B782F2B1DD10C23FB18642200211800D8
S214003710844B98470C23F9183868002364227F4CA2
S214003720A047031E00D0F4E07D4B1B68002B00D1A1
S214003730EFE07B4B1B680C22BA1811002F2098472D
S214003740E7E0FB1D1B78342B2ED17823F918386858
S21400375000230422714CA047031E00D0D9E0724B10
S2140037601800724B9847BB6F1B0EDBB21900BB6F7D
S2140037701B0CDBB21A00BB6F1B0ADBB21C00BB6F54
S214003780DBB26B4800932300684CA0470D20694BC2
S2140037909847634B1B68002B00D1BAE0604B1B6850
S2140037A0002134209847B4E0FB1D1B78112B1ED156
S2140037B0614B00221A707423F9183868002304221B
S2140037C0564CA047031E00D0A3E07423FB181A78BB
S2140037D05A4B1A70524B1B68002B00D199E0504B85
S2140037E01B687422BA1811001120984791E0FB1D3F
S2140037F01B78132B16D10C23F918386800232C22BB
S214003800464CA047031E00D083E0454B1B68002BA8
S21400381000D17EE0424B1B680C22BA181100132020
S214003820984776E0FB1D1B78042B15D19823F918D2
S214003830386800230422394CA047031E00D068E0F5
S214003840374B1B68002B64D0354B1B689822BA1880
S2140038501100042098475CE0FB1D1B78792B14D1DF
S2140038609823F9183868002304222C4CA047031E1E
S2140038704FD12B4B1B68002B4BD0294B1B68982233
S214003880BA1811007920984743E0FB1D1B78092BD6
S21400389014D10C23F9183868012364221F4CA04762
S2140038A0031E36D11E4B1B68002B32D01C4B1B68E8
S2140038B00C22BA181100092098472AE0FB1D1B7835
S2140038C02A2B14D17023F918386801230422134CCC
S2140038D0A047031E1DD1124B1B68002B19D0104B9E
S2140038E01B687022BA1811002A20984711E0182386
S2140038F0FF331A001249134B18000C4B9847FB1D58
S2140039001A78114B11001800084B98470D20094BE8
S2140039109847C046BD4629B090BDC0465D330000FE
S2140039209002002085280000083B01002D210100A0
S214003930143B0100612101008D0200208C02002052
S214003940783D0100343B0100483B010090B585B04E
S21400395000AF78600F23FB1800221A707B68002BDC
S21400396004D10F23FB18F4221A702CE07B681A6827
S214003970194B1A60194B00221A700F23FC180020EE
S214003980174B9847030023700F23FB181B785BB276
S214003990002B17D10F23FC180020124B984703006A
S2140039A023700F23FB181B785BB2002B05D10E4B40
S2140039B0190001200D4B984705E0C04600200C4B2F
S2140039C0984700E0C0460F23FB181B785BB2180030
S2140039D0BD4605B090BDC046900200208D02002076
S2140039E081480000092B000009360000553500000C
S2140039F0BD4A000080B582B000AF7860034B9847A0
S214003A0003001800BD4602B080BDC046D13200009B
S214003A1090B587B002AFF860080011007B600B23FA
S214003A20FB18021C1A700A23FB180A1C1A707C6802
S214003A300A23FB181A780B23FB181978F86800235A
S214003A4001932023FB181B8800932300034CA047F8
S214003A5003001800BD4605B090BDC046613A0000A0
S214003A60B0B5A8B004AFF860080011007B600B2367
S214003A70FB18021C1A700A23FB180A1C1A708F23E4
S214003A80FB1800221A700A23FB181B78012B16D08D
S214003A907B68002B13D1E423FF331A00BA49BB4BD3
S214003AA01800BB4B9847BB4B1800BB4B98470D20E4
S214003AB0BA4B98478F23FB18F4221A705CE10B234D
S214003AC0FB181B78002B04D00B23FB181B78202B2D
S214003AD012D9F5235A00AC49AC4B1800AC4B9847AA
S214003AE0AF4B1800AC4B98470D20AC4B98478F2334
S214003AF0FB18F4221A703FE1A023FB181B880D2B3D
S214003B0018D9A023FB181B88FF2B13D0F423FF33F0
S214003B101A009D499D4B18009D4B9847A14B1800D5
S214003B209D4B98470D209D4B98478F23FB18F422FA
S214003B301A7021E10B23FB181A78F9681023FB187A
S214003B4046331800984B98470B23FB181B78102217
S214003B50BA184621D3185B1800221A701023FB18D7
S214003B60A022BA18442112885A52A423FB181B78A4
S214003B705A1E9341DBB219001023FB186722995492
S214003B801023FB188822BA1813608823FB181B68BA
S214003B900A22BA18412112785A540A23FB181B78B5
S214003BA0032B00D07AE07B688422BA18136088233F
S214003BB0FB181B688022BA1813608423FB181B6846
S214003BC01B78013BDAB28023FB181B681A7080232F
S214003BD0FB181B681B78032B17D9744A6A496B4B72
S214003BE018006B4B98478023FB181B681B781A003D
S214003BF06F4B11001800664B98470D20674B98478F
S214003C008F23FB18F4221A70B6E08423FB181B6877
S214003C105B78013BDAB28023FB181B685A7080235E
S214003C20FB181B685B780A2B1DD08023FB181B68CB
S214003C305B781A2B17D05F4A5349544B1800544BE5
S214003C4098478023FB181B685B781A005A4B1100B4
S214003C5018004F4B98470D20504B98478F23FB1862
S214003C60F4221A7088E08023FB181B68981C8423B3
S214003C70FB181B68991C8423FB181B685B781A00CA
S214003C80494B98478423FB181B685B781A008023EF
S214003C90FB181B689B1800229A705CE00A23FB182E
S214003CA01B78022B31D17E23FC187B681800434B0F
S214003CB09847030023807E23FB181B88002B04D024
S214003CC07E23FB181B88402B12D988239A002E4986
S214003CD02E4B18002E4B9847394B18002E4B984702
S214003CE00D202E4B98478F23FB18F4221A7043E0C2
S214003CF08823FB1818687E23FB181B8801331A00DC
S214003D007B681900284B984725E00A23FB181B7888
S214003D10042B08D18823FB181B6879683E221800FC
S214003D20214B984717E00A23FB181B78012B12D06B
S214003D308C239A001449154B1800154B9847214BB5
S214003D401800154B98470D20144B98478F23FB18E7
S214003D50F4221A7010E08F23FC181023FA180023A0
S214003D60029300230193002300936C232821012053
S214003D70154DA847030023708F23FB181B785BB2F2
S214003D801800BD4624B0B0BD843D0100343B0100A0
S214003D902D210100703C0100492201006121010033
S214003DA0843C0100983C0100492800000A020000FB
S214003DB0A43C010011020000C03C0100C328000022
S214003DC0DC3C0100F83C0100712B000080B500AF20
S214003DD000231800BD4680BD90B587B000AF786060
S214003DE01723FB1800221A707B683B613A69A523EB
S214003DF05B0111001800134B98473B69002B18D045
S214003E000023FB601723FC180C23FA18A5235B017C
S214003E10110018000C4B9847030023701723FB185B
S214003E201B785BB2002BE1D1FA683B699A4202D05C
S214003E30DCE7C04600E0C04600231800BD4607B0D9
S214003E4090BDC04619450000F544000090B585B009
S214003E5000AF0F23FB1800221A700023BB6001205E
S214003E60544B98470F23FC183B1D19000120524B5A
S214003E709847030023700F23FB181B785BB2002BB8
S214003E800DD04E494E4B712218004E4B98474E4B64
S214003E9018004E4B98470D204D4B984781E07B68A5
S214003EA002221343190001204A4B98470120414B38
S214003EB09847494B1B680F22BC183A00110018009F
S214003EC03D4B9847030023700F23FB181B785BB20B
S214003ED0002B08D10F23FB181B785BB2002B42D1B6
S214003EE03B68002B3FD13C4B0E221A600120314B21
S214003EF09847394B1B680F22BC183A00110018006F
S214003F002D4B9847030023700F23FB181B785BB2DA
S214003F10002B28D029492A4B8B221800294B98477A
S214003F202E4B1800294B98470D20294B984738E010
S214003F300220204B9847284B1B683A0011001800B7
S214003F401D4B98473B68042213400CD11B491C4B61
S214003F509E2218001B4B9847214B18001B4B984776
S214003F600D201B4B98473B680422134009D1BB68C1
S214003F700133BB60BA681B4B0321100098470B1E29
S214003F80D6D03B680422134006D17B680222134336
S214003F90190001200F4B98473B680422134000D1BC
S214003FA07DE70F23FB181B785BB21800BD4605B0F3
S214003FB090BDC04671270000F5440000C03E0100D9
S214003FC0983D01002D210100AC3D01004922010071
S214003FD0612101001945000010000020CC3D0100C1
S214003FE0EC3D0100BD00010090B583B000AFFC1DA4
S214003FF03B00294A19001000284B984703002370FD
S214004000FB1D1B785BB2002B02D006235B423FE011
S2140040103B688022520013433B603B68FC1D1E4AEF
S214004020190010001E4B984703002370FB1D1B78D9
S2140040305BB2002B02D006235B4229E0FC1D3A004F
S214004040D0235B0111001800144B9847030023701F
S214004050FB1D1B785BB2002B02D006235B4217E0E9
S2140040603B688022520213433B603A68FC1DD02313
S2140040705B01110018000A4B984703002370FB1DD4
S2140040801B785BB2002B02D006235B4200E00023C5
S2140040901800BD4603B090BD08140000F5440000AB
S2140040A01945000080B582B000AF284B1B68002B76
S2140040B045D1264A80235B0111001800244B9847FF
S2140040C0031E04D0214B00221A60002339E03B1D5A
S2140040D0204A190010001E4B9847031E04D01B4BA5
S2140040E000221A6000232CE0184B1B681A4A9342E1
S2140040F006D17B68012B15D0144B184A1A6011E0C4
S214004100124B1B68164A93420CD17B68032B09D0CE
S2140041107B68042B03D10D4B124A1A6002E00B4B4E
S214004120114A1A60094B1B68104A1A40074B1A605E
S214004130064B1B68A022D2021A43044B1A60034B9C
S2140041401B681800BD4602B080BDC0469402002021
S214004150F5440000F4130000A0021000A1021000B5
S214004160B0021000B1021000B2021000FFFFF0FF14
S21400417080B586B000AF0200FB1D1A701723FB182F
S21400418000221A7000233B610023FB6000233B6182
S2140041902F4B18002F4B984703003B613B69002BC1
S2140041A003DB01202C4B9847F2E7C0462B4B180048
S2140041B0284B984703003B613B69012213403B6153
S2140041C03B69002B1CD100233B6115E00120224BEC
S2140041D09847234B18001F4B984703003B61FB682A
S2140041E00133FB60FA68FA23DB009A4204D91723EE
S2140041F0FB18FB221A7023E03B691A4A9342E5D16A
S214004200FB1D1B78022B05D1174A184B110018000E
S214004210174B9847174B984703001B051A0DE823C2
S2140042209B009A4203D10220134B984702E00020DD
S214004230114B9847114A0A4B110018000C4B98472F
S2140042401723FB181B785BB21800BD4606B080BD6E
S21400425014100000D544000071270000BC070200BF
S2140042600C000C009ED0AD107DD51C3CAC070200A7
S21400427019450000A5400000D93D0000612F52EF0F
S21400428080B588B000AF0200FB1D1A701F23FB1814
S21400429000221A700023BB6100237B611B4B3B612D
S2140042A01B4BFB60FB1D1B78022B1AD1194B3B6185
S2140042B0194BFB6015E00220184B98473B69180025
S2140042C0174B98470300BB617B6901337B617A69B2
S2140042D0FA23DB009A4204D91F23FB18FB221A702C
S2140042E00CE0FA68BB699A42E5D1FB68084A93423B
S2140042F004D1064B002118000A4B98471F23FB18D1
S2140043001B785BB21800BD4608B080BD8C1000005C
S21400431036265302AC070200C3C15DD771270000E2
S214004320D54400001945000090B583B000AF0023C7
S2140043303B60BB1D0A221A70FC1D3A00A0235B01DD
S214004340110018003F4B984703002370FB1D1B7895
S2140043505BB2002B0CD03C4A3C493D4B18003D4B11
S21400436098473D4B18003D4B98470D203C4B9847CF
S2140043703B683C4A13403B603A68FC1DA0235B0147
S21400438011001800384B984703002370FB1D1B785C
S2140043905BB2002B10D0354A2C492D4B18002D4B04
S2140043A09847334B18002D4B98470D202C4B9847B9
S2140043B0FB1D1B785BB241E0FC1D3A00A0235B01AD
S2140043C0110018001F4B984703002370FB1D1B7835
S2140043D05BB2002B11D087239A001C491C4B180097
S2140043E01C4B9847234B18001C4B98470D201C4B22
S2140043F09847FB1D1B785BB220E03A688023DB0001
S214004400134017D03B68174A13403B603A68FC1DC0
S214004410A0235B0111001800134B9847030023707C
S214004420BB1D1A78BB1D013A1A70BB1D1B78002BEA
S214004430C2D100E0C046FB1D1B785BB21800BD462B
S21400444003B090BDF54400000F020000D03E01000E
S214004450983D01002D210100383E0100492201004F
S21400446061210100FFFBFFFF194500001502000057
S214004470503E0100683E010090B585B000AF786000
S2140044800F23FB1800221A700F23FC187B681800F5
S214004490054B9847030023700F23FB181B785BB26D
S2140044A01800BD4605B090BD6106000090B583B00B
S2140044B000AFFB1D00221A70FC1D054B9847030039
S2140044C02370FB1D1B785BB21800BD4603B090BD81
S2140044D0D907000080B582B000AF78607B6818000E
S2140044E0034B984703001800BD4602B080BDC04687
S2140044F0C95B000080B582B000AF786039603A686A
S2140045007B6811001800034B984703001800BD464F
S21400451002B080BDED5B000080B582B000AF786071
S21400452039603A687B6811001800034B984703000F
S2140045301800BD4602B080BD3D5C000080B584B06A
S21400454000AFF860B960BB1D1A80BB1D1A88B96839
S214004550FB681800034B984703001800BD4604B0DC
S21400456080BDC0468D5C000080B586B000AFF860A8
S214004570B9607A602D4B1A881023FB18083A1A8007
S21400458000237B611323FB1800221A701023FB18EC
S2140045901A887B689A4213D3BA687B69D1187B68FD
S2140045A09AB2FB681800224B98470300DAB213232E
S2140045B0FB181B78D318DAB21323FB181A702DE0F9
S2140045C0BA687B69D1181023FB181A88FB68180094
S2140045D0174B98470300DAB21323FB181B78D3183F
S2140045E0DAB21323FB181A701323FB181B785BB27E
S2140045F0002B12D11023FB181B887A68D31A7B6015
S2140046001023FB181B887A69D3187B611023FB18CC
S2140046101B88FA68D318FB60B8E7C0461323FB185C
S2140046201B785BB21800BD4606B080BD00000020B7
S2140046303D45000080B584B000AFF860B960BB1D92
S2140046401A80BB1D1A88B968FB681800034B984788
S21400465003001800BD4604B080BDC046E55C0000FF
S21400466080B586B000AFF860B9607A602D4B1A88C6
S2140046701023FB18083A1A8000237B611323FB18CB
S21400468000221A701023FB181A887B689A4213D3EC
S214004690BA687B69D1187B689AB2FB681800224B0F
S2140046A098470300DAB21323FB181B78D318DAB244
S2140046B01323FB181A702DE0BA687B69D1181023F3
S2140046C0FB181A88FB681800174B98470300DAB2E5
S2140046D01323FB181B78D318DAB21323FB181A70AF
S2140046E01323FB181B785BB2002B12D11023FB1888
S2140046F01B887A68D31A7B601023FB181B887A699C
S214004700D3187B611023FB181B88FA68D318FB604C
S214004710B8E7C0461323FB181B785BB21800BD46EB
S21400472006B080BD000000203546000090B587B07A
S21400473000AF78600023FB601723FB1800221A7076
S2140047401723FC180C23FB18494A19001000494B84
S214004750984703002370FB681B0C9BB21B0A9BB296
S214004760DAB27B68DA70FB681B0C9BB21B099BB243
S214004770DBB20F221340DAB27B681A71FB681B0C9F
S214004780DBB20F221340DAB27B685A71FB689BB229
S2140047901B0A9BB2DAB27B681A70FB689BB21B09D5
S2140047A09BB2DBB20F221340DAB27B685A70FB680A
S2140047B0DBB20F221340DAB27B689A702E4B984712
S2140047C002007B68DA617B681B781B021AB27B6882
S2140047D05B781B011BB2FF210B401BB213431AB2BE
S2140047E07B689B781BB20F210B401BB213431AB297
S2140047F01423FB181A801223FB18204A1A807B68A1
S214004800DB781B021AB27B681B791B011BB2FF21E7
S2140048100B401BB213431AB27B685B791BB20F21A5
S2140048200B401BB213431AB21023FB181A80122334
S214004830FA181023FB1812881B889A4203D21723F3
S214004840FB18F3221A701223FA181423FB18128886
S2140048501B889A4203D91723FB18F3221A701723D2
S214004860FB181B785BB21800BD4607B090BDC0466B
S214004870AC070200F5440000A540000052130000FB
S21400488090B58DB000AF78602F23FB1800221A7009
S2140048902E23FB1801221A707B68002B07D07B683A
S2140048A01B78022B03D12E23FB1802221A702F230B
S2140048B0FC1800206C4B9847030023702F23FB182E
S2140048C01B785BB2002B0DD06849694BA0221800FC
S2140048D0684B9847684B1800684B98470D20684B04
S2140048E09847B9E0674B1800624B9847664B984765
S2140048F00200664B110018005E4B98470D20604B77
S2140049009847634B98472F23FC182E23FB181B78D9
S2140049101800604B9847030023702F23FB181B7862
S2140049205BB2002B00D090E02F23FC182E23FB1840
S2140049301B781800584B9847030023702F23FB184A
S2140049401B785BB2002B00D081E02E23FB181B786F
S214004950022B00D17FE02F23FC18504B9847030012
S21400496023702F23FB181B785BB2002B0DD03F491A
S2140049703F4BD82218003F4B9847494B18003F4BF7
S21400498098470D203E4B984762E02F23FC180C23D7
S214004990FB181800434B984703002370394B180048
S2140049A0344B98470C23FB181B7819000C23FB1874
S2140049B05B781A000C23FB189B783B482D4CA047CD
S2140049C00D202F4B98472F4B18002A4B98470C2347
S2140049D0FB18DB7819000C23FB181B791A000C2334
S2140049E0FB185B793148234CA0470D20244B984791
S2140049F0244B18001F4B98472D48022305221321ED
S214004A001C4CA0470D201E4B98470C23FB181B7808
S214004A10132B04D10C23FB185B78052B10D02F2307
S214004A20FB18F3221A701149114BE6221800114B9D
S214004A309847204B1800114B98470D20104B98476D
S214004A402F23FB181B785BB20AE0C04600E0C04686
S214004A50194B984700E0C0462F23FB181B785BB223
S214004A601800BD460DB090BD79440000F43F01002B
S214004A70DC3E01002D210100F03E0100492201002C
S214004A80612101000C3F0100A5400000183F010015
S214004A90655A00007141000081420000E93F0000B5
S214004AA0283F01002D470000483F0100643F0100F9
S214004AB0803F01009C3F0100AD44000090B585B0EA
S214004AC000AF78600F23FC181E4B98470300237036
S214004AD00F23FB181B785BB2002B0DD01A491B4B1B
S214004AE0FC2218001A4B98471A4B18001A4B984786
S214004AF00D201A4B98471CE00F23FC18184B9847BC
S214004B00030023700F23FB181B785BB2002B0ED01C
S214004B1081235A000C490D4B18000D4B9847114B3A
S214004B2018000D4B98470D200C4B984701E00E4B94
S214004B3098470F23FB181B785BB21800BD4605B0DC
S214004B4090BDC0462943000000400100DC3E010045
S214004B502D210100B83F010049220100612101001A
S214004B60AD440000D83F0100B15B000080B586B0C0
S214004B7000AF78600A00BB1C1A800C23FB180022CA
S214004B801A600C23FB187A685A600C23FB18BA1CB0
S214004B9012881A810C23FB1819000320034B984730
S214004BA003001800BD4606B080BDC0464907000099
S214004BB080B586B000AF78600A00BB1C1A800C2354
S214004BC0FB187A681A600C23FB1800225A600C2324
S214004BD0FB18BA1C12881A810C23FB181900032034
S214004BE0034B984703001800BD4606B080BDC0467C
S214004BF04907000080B582B000AF0200FB1D1A70A6
S214004C00BB1D0A1C1A70FB1D1B785A00BB1D1B78A7
S214004C105340034AD35C1800BD4602B080BDC04670
S214004C201040010090B585B000AFB9607A600F23E0
S214004C30FB18021C1A700EE0BB685A1CBA601A7881
S214004C400F23FC180F23FB181B7811001800084BC5
S214004C509847030023707B685A1E7A60002BEBD1BE
S214004C600F23FB181B781800BD4605B090BDC04644
S214004C70F54B000090B589B000AFB9607A603B6034
S214004C800F23FB18021C1A701F23FB1805221A702C
S214004C901E23FB1801221A701423FB180F22BA18C1
S214004CA012781A700F23FB181B78C13B0E2B00D905
S214004CB01BE19A00B64BD3181B689F46BB681B0CBB
S214004CC0DAB21423FB185A70BB681B0ADAB2142334
S214004CD0FB189A70BB68DAB21423FB18DA701F232D
S214004CE0FB1805221A7005E1BB681B0ADAB214230A
S214004CF0FB185A703023FB181B78002B09D014239E
S214004D00FB185B78802252421343DAB21423FB1856
S214004D105A70BB68DAB21423FB189A701423FB1877
S214004D200022DA701F23FB1805221A70E2E0142313
S214004D30FB1800225A701423FB1800229A701423C2
S214004D40FB180022DA701F23FB1805221A70D1E028
S214004D501423FB1800225A701423FB1800229A70A2
S214004D601423FB180022DA701F23FB1805221A7082
S214004D70C0E01423FB18FF225A701423FB18FF22EE
S214004D809A701423FB18FF22DA701F23FB180522E3
S214004D901A70AFE0BB681B0CDAB21423FB185A700B
S214004DA0BB681B0ADAB21423FB189A70BB68DAB227
S214004DB01423FB18DA703B681B0ADAB21423FB18BC
S214004DC01A713B68DAB21423FB185A711F23FB18BA
S214004DD007221A708EE0BB681B0CDAB21423FB188D
S214004DE05A70BB681B0ADAB21423FB189A70BB68A9
S214004DF0DAB21423FB18DA703B681B0CDAB2142301
S214004E00FB181A713B681B0ADAB21423FB185A7196
S214004E103B68DAB21423FB189A711F23FB1808228A
S214004E201A7067E0BB681B0ADAB21423FB185A70C4
S214004E303023FB181B78002B09D01423FB185B7853
S214004E40802252421343DAB21423FB185A70BB680E
S214004E50DAB21423FB189A707B681B0EDAB214239E
S214004E60FB18DA707B681B0CDAB21423FB181A7175
S214004E707B681B0ADAB21423FB185A717B68DAB215
S214004E801423FB189A711F23FB1808221A7031E0AE
S214004E90BB681B0CDAB21423FB185A70BB681B0ADB
S214004EA0DAB21423FB189A70BB68DAB21423FB1824
S214004EB0DA707B681B0EDAB21423FB181A717B6853
S214004EC01B0CDAB21423FB185A717B681B0ADAB281
S214004ED01423FB189A717B68DAB21423FB18DA7174
S214004EE01F23FB1809221A7004E01E23FB18002259
S214004EF01A70C0461E23FB181B785BB2002B3ED0F0
S214004F00244B1B78002B15D11F23FB181B785C1E27
S214004F101F23FB181B78013B1A001423FB181900EB
S214004F207F201D4B98470300DB18DAB21423FB18CA
S214004F301A5506E01F23FB181F22BA181278013AEA
S214004F401A701F23FB181B789AB21423FB18110043
S214004F501800124B9847031E11D090235A00104990
S214004F60104B1800104B9847104B1800104B9847E2
S214004F700D20104B98471E23FB1800221A701E2384
S214004F80FB181B785BB21800BD4609B090BDC04642
S214004F90C845010098020020254C0000B14B0000D7
S214004FA004460100104101002D21010024410100AA
S214004FB0492201006121010080B584B000AF0200E3
S214004FC0FB1D1A700F23FB1801221A70FB1D1B789D
S214004FD0CF2B07D0FB1D1B78C52B03D0FB1D1B78E2
S214004FE0C62B0CD10D23FB18012118003A4B98470D
S214004FF0031E04D00F23FB1800221A7063E00E2352
S214005000FB180A221A700D23FB1801211800324BD8
S2140050109847031E13D04023FF331A002F49304B06
S2140050201800304B9847304B1800304B98470D20EF
S2140050302F4B98470F23FB1800221A7043E00D23CE
S214005040FB181B78FA1D12789A420BD00E23FB1819
S2140050501B785BB2DAB2013AD1B20E22BA181170DE
S214005060002BD0DC0E23FB180A221A700D23FB1827
S21400507001211800184B9847031E13D04E23FF3308
S2140050801A001649164B1800164B9847164B180070
S214005090164B98470D20164B98470F23FB180022F7
S2140050A01A7010E00D23FB181B78002B0BD00E2374
S2140050B0FB181B785BB2DAB2013AD1B20E22BA18EC
S2140050C01170002BD2DC0F23FB181B785BB2180084
S2140050D0BD4604B080BDC0466D4B00000C460100C6
S2140050E0104101002D21010050410100492201001C
S2140050F06121010080B586B000AF7860080011001D
S214005100BB1C021C1A807B1C0A1C1A701123FB187D
S21400511001221A701423FB1800221A80BB1C1A885E
S21400512080239B019A4205D81223FB18BA1C1288CA
S2140051301A8004E01223FB18802292011A8016239C
S214005140FB180A221A800B23FB18012118005F4B5C
S2140051509847031E13D07023FF331A005C495D4B3B
S21400516018005D4B98475D4B18005D4B98470D2027
S2140051705C4B98471123FB1800221A7017E00B238C
S214005180FB181B781B09DBB21A000F2313400F2BEA
S2140051900CD01623FB1800229B5E9AB2013A91B2FD
S2140051A01622BA181180002BCDD100E0C04611237C
S2140051B0FB181B785BB2002B00D17DE01623FB1892
S2140051C000229B5E002B18DC7C23FF331A0040492C
S2140051D0404B1800404B98470B23FB181B781A00CF
S2140051E0414B110018003C4B98470D203D4B98470B
S2140051F01123FB1800221A705FE01423FB1800220C
S2140052009B5E7A68D2181223FB181B8819001000C0
S2140052102E4B9847031E12D0C2235A002C492D4B02
S21400522018002D4B9847314B18002D4B98470D20F2
S2140052302C4B98471123FB1800221A703DE07B1C6C
S2140052401B78002B1FD12A4B1B78002B1BD10C235D
S214005250FB18022118001D4B9847031E13D09023FD
S214005260FF331A001A491B4B18001B4B9847214B5B
S21400527018001B4B98470D201A4B98471123FB1814
S21400528000221A7019E01423FB181A881223FB1840
S2140052901B88D3189AB21423FB181A801223FB1803
S2140052A01A88BB1CB91C09888A1A1A80BB1C1B8862
S2140052B0002B00D032E700E0C0461123FB181B7815
S2140052C05BB21800BD4606B080BDC0466D4B000000
S2140052D018460100104101002D2101008441010003
S2140052E04922010061210100B8410100E8410100A6
S2140052F0980200201842010080B586B000AF7860A2
S2140053000A00BB1C1A801323FB1801221A700C23F8
S214005310FB1800221A801623FB1800221A80BB1CDA
S2140053201A8880239B019A4205D81423FB18BA1CBE
S21400533012881A8004E01423FB18802292011A8037
S2140053401123FB18F0221A701623FB1800229B5E0E
S214005350002B0FD1BB1C1A8880239B019A4204D8CD
S2140053601223FB1803221A7013E01223FB180122E3
S2140053701A700EE0BB1C1A8880239B019A4204D840
S2140053801223FB1803221A7003E01223FB180222D2
S2140053901A701123FB181A781223FB181B78134374
S2140053A0DAB21123FB181A701123FB18012118001A
S2140053B03C4B9847031E12D0E0235A003A493B4B19
S2140053C018003B4B98473B4B18003B4B98470D202B
S2140053D03A4B98471323FB1800221A705AE01623FC
S2140053E0FB1800229B5E7A68D2181423FB181B88D1
S2140053F0190010002B4B9847031E13D0CA23FF3307
S2140054001A002949294B1800294B98472C4B18009D
S214005410294B98470D20294B98471323FB18002249
S2140054201A7037E0274B1B78002B1BD10C23FB1878
S214005430022118001B4B9847031E13D0D423FF33BA
S2140054401A001949194B1800194B98471E4B18009B
S214005450194B98470D20194B98471323FB18002229
S2140054601A7017E01623FB181A881423FB181B88DB
S214005470D3189AB21623FB181A80BB1CB91C142228
S214005480BA18098812888A1A1A80BB1C1B88002B37
S21400549000D044E71323FB181B785BB21800BD4608
S2140054A006B080BDB14B0000284601001041010047
S2140054B02D2101004C42010049220100612101001A
S2140054C08442010098020020B8420100B0B586B0C0
S2140054D002AF786039600D23FB1801221A700F2383
S2140054E0FB18C9221A700E23FB1800221A707B685C
S2140054F0302B08D80F23FB18C3221A700E23FB1874
S21400550001221A7007E00F23FB18C9221A700E2317
S214005510FB1800221A700D23FC183A6879680F23CE
S214005520FB1818780E23FB181B7800930423244DD1
S214005530A847030023700D23FB181B785BB2012BD2
S21400554010D0204A2049214B1800214B98477A68F2
S214005550204B110018001E4B98470D201E4B9847F5
S214005560002329E00D23FC180F23FB181B781800D6
S2140055701A4B9847030023700D23FB181B785BB269
S214005580012B18D0164A1049104B1800104B98479C
S2140055907A68144B110018000D4B98470D200E4BDF
S2140055A0984700230093002300220021CF20044CBC
S2140055B0A047002300E001231800BD4604B0B0BD9C
S2140055C0754C00000302000038460100104101003F
S2140055D02D210100F042010061210100B94F0000B9
S2140055E0090200001C430100B0B588B002AFF860A5
S2140055F0B960BB1D1A801723FB18C7221A70BB1D83
S2140056001A881623FC18F9681723FB181878002345
S214005610009313000022374DA8470300237016237B
S214005620FB181B785BB2012B10D0334A3349344B3E
S2140056301800344B9847FA68334B11001800314B6A
S21400564098470D20314B984700234FE01623FC184F
S2140056501723FB181B7818002D4B98470300237060
S2140056601623FB181B785BB2012B18D0294A234956
S214005670234B1800234B9847FA68274B1100180055
S214005680204B98470D20214B98470023009300237A
S21400569000220021CF20174CA047002326E0162327
S2140056A0FC18BB1D1A88BB68110018001B4B9847D6
S2140056B0030023701623FB181B785BB2012B14D053
S2140056C0174A0E490E4B18000E4B9847154B1800FC
S2140056D0154B98470D200D4B984700230093002349
S2140056E000220021CF20034CA04701231800BD460E
S2140056F006B0B0BD754C0000270200004846010009
S214005700104101002D2101005443010061210100D8
S214005710B94F00002D02000084430100F95200003A
S2140057203E020000BC43010049220100B0B586B02D
S21400573002AF786039600D23FB1801221A700F2320
S214005740FB18CA221A700E23FB1800221A707B68F8
S214005750FF2B08D80F23FB18C4221A700E23FB1841
S21400576001221A7007E00F23FB18CA221A700E23B4
S214005770FB1800221A700D23FC1879680F23FB18FB
S21400578018780E23FB181B78009304230022444D40
S214005790A847030023700D23FB181B785BB2012B70
S2140057A010D0404A4049414B1800414B98477A6810
S2140057B0404B110018003E4B98470D203E4B984733
S2140057C0002368E00D23FC180F23FB181B78180035
S2140057D03A4B9847030023700D23FB181B785BB2E7
S2140057E0012B18D0364A3049304B1800304B9847BA
S2140057F07A68344B110018002D4B98470D202E4B1D
S214005800984700230093002300220021CF20244C39
S214005810A04700233FE00D23FC180E23FB181A7840
S2140058200823FB1804211800274B98470300237011
S2140058300D23FB181B785BB2012B16D0234A1A499E
S2140058401A4B18001A4B9847214B1800214B9847C3
S2140058500D20194B984700230093002300220021B7
S214005860CF200F4CA047002315E00823FB181B7819
S2140058701A000823FB185B781B021A430823FB1840
S2140058809B781B041A430823FB18DB781B061A4375
S2140058903B681A6001231800BD4604B0B0BDC04680
S2140058A0754C00005D0200005846010010410100E2
S2140058B02D210100E443010061210100B94F0000E1
S2140058C06302000010440100F55000006B02000067
